:100000000C9462000C948A000C948A000C948A0070
:100010000C948A000C948A000C948A000C948A0038
:100020000C948A000C948A000C948A000C948A0028
:100030000C948A000C948A000C948A000C948A0018
:100040000C94890C0C948A000C94550D0C948A0025
:100050000C948A000C948A000C948A000C948A00F8
:100060000C948A000C948A000000000024002700F1
:100070002A0000000000250028002B0000000000DE
:1000800023002600290004040404040404040202DA
:100090000202020203030303030301020408102007
:1000A0004080010204081020010204081020000012
:1000B0000007000201000003040600000000000029
:1000C00000009E0E11241FBECFEFD8E0DEBFCDBFD3
:1000D00011E0A0E0B1E0E8E8FFE102C005900D9278
:1000E000A632B107D9F715E0A6E2B1E001C01D9232
:1000F000A13EB107E1F710E0C4ECD0E004C02297C4
:10010000FE010E94BE0FC23CD107C9F70E94820CBB
:100110000C94C20F0C940000FB01DC0102C00190A2
:100120000D9241505040D8F70895FC0181918617F7
:1001300021F08823D9F7992708953197CF010895A1
:10014000FB01DC018D91019080190110D9F3990B0D
:100150000895FB01DC0101900D920020E1F7089564
:10016000FB01DC014150504030F08D91019080192D
:1001700019F40020B9F7881B990B0895DF93CF93EA
:1001800000D0CDB7DEB7DC01009781F16230710598
:1001900068F1ED91FC911197660F771F80E090E078
:1001A00016962D913D914D915C911997620F731F99
:1001B000841F951F0190F081E02DAE014F5F5F4FCE
:1001C00022E030E00995882389F029813A812115C0
:1001D000310571F08FEF273F380741F0C901409694
:1001E000079720F08FEF283F380710F020E030E02D
:1001F000C9010F900F90CF91DF910895FC010097F6
:1002000011F01182108208952F923F924F925F92C7
:100210006F927F928F929F92AF92BF92CF92DF9216
:10022000EF92FF920F931F93DF93CF93CDB7DEB77B
:100230002A970FB6F894DEBF0FBECDBF2C017A838C
:1002400069835C834B83009709F409C1672B09F428
:1002500006C1452B09F403C1DC019D96AD90BD900C
:10026000CD90DC90D09795962D913D914D915C91DC
:100270009897EB81FC81CF01A0E0B0E08A0D9B1D37
:10028000AC1DBD1D281739074A075B0740F4B901AB
:100290006A197B097C836B83672B09F4E3C0D20165
:1002A000ED91FC91119720883188D196ED91FC91C8
:1002B000D297FA87E987EF2BF1F593962D913C9130
:1002C00094973A872987232B39F4A114B104C104E8
:1002D000D10409F4C7C0C3C0A114B104C104D1043E
:1002E00051F1860175013101882499246627772709
:1002F000CB0166197709880999096D837E838F83FD
:10030000988714C0D2018D919C9169857A850E944D
:10031000BE009A878987892B09F4A1C06D817E81EF
:100320008F819885E60EF71E081F191FE614F70443
:100330000805190538F7089421083108A220B320D0
:100340000894211C311CCB80DC80D201ED90FC9004
:10035000E114F10409F1E985FA85E230F105E0F0F4
:100360003297BF0180E090E03296FA87E987D701A3
:1003700050962D913C91519740E050E00E94390FEA
:100380009B01AC01F70182899389A489B589280F63
:10039000391F4A1F5B1F04C020E030E040E050E0FE
:1003A00081010A191B09C016D10608F48601D7017C
:1003B000ED91FC91C501A0E0B0E0280F391F4A1F64
:1003C0005B1F0190F081E02DCA01B90149815A817A
:1003D00098010995882341F1C01AD10AC801A0E00B
:1003E000B0E0F20125A536A547A550A9280F391F71
:1003F0004A1F5B1FD2019D962D933D934D935C93B5
:10040000D097C8018A0D9B1D82159305A0F08D9190
:100410009C9169857A850E94BE009A878987892B7D
:1004200041F4F20112AA11AA4B815C814C195D09B9
:100430001BC0AA24BB24E985FA85D201D296FC937D
:10044000EE93D197C114D10439F029813A81200F5C
:10045000311F3A83298379CF4B815C8105C04FEFEF
:100460005FEF02C040E050E0CA012A960FB6F89450
:10047000DEBF0FBECDBFCF91DF911F910F91FF90D7
:10048000EF90DF90CF90BF90AF909F908F907F9034
:100490006F905F904F903F902F900895FC010097D0
:1004A00011F480E0089583A194A196A785A710AACE
:1004B00017A681E00895CF92DF92EF92FF920F93FB
:1004C0001F93CF93DF938C016A017B01A901D901AE
:1004D000CD91DC91119712968D919C9113978096F6
:1004E00013969C938E931297F8018081853E09F4B0
:1004F000BAC0882309F4B7C08FA198A5A9A5BAA549
:100500000097A105B10521F4CFA2D8A6E9A6FAA6C5
:10051000209709F4AAC00115110509F4A6C0D80155
:100520009C91992309F4A1C01B968C918F30A1F561
:10053000892F90E08F7390702DE030E0829FA001B2
:10054000839F500D929F500D11244D50504010929A
:1005500027011092260111C0AC0FBD1FF901E15F08
:10056000FE4F8081F801E80FF11D80818C932F5F91
:100570003F4F30932701209326012091260130918F
:1005800027012D30310508F06EC0DA01A20FB31F2C
:10059000AF31B10508F367C08881882309F04FC0E7
:1005A000B801DE01780120E0F70190819032A1F0DE
:1005B0009C93F801848583FF08C0F7018081813412
:1005C00020F08B3510F4905E9C932F5F0894E11C13
:1005D000F11C1196283041F78881853011F485EEA1
:1005E0008883D80118968C91803211F4322F23C061
:1005F000FE01E20FF11D8EE28083322F3F5F2C5F00
:10060000FB0190859032B9F0FE01E30FF11D90835C
:10061000D8011C968C9184FF09C0DB0118968C913F
:10062000813420F08B3510F4905E90833F5F6F5FD4
:100630007F4F321729F7FE01E30FF11D1082F801F9
:10064000838588A3828D938D9AA389A3848D958DAC
:10065000A68DB78D8BA39CA3ADA3BEA381E0DA01C9
:1006600014968C9302C081E001C080E0DF91CF91AD
:100670001F910F91FF90EF90DF90CF9008952F92F0
:100680003F924F925F926F927F928F929F92AF9222
:10069000BF92CF92DF92EF92FF920F931F93DF935F
:1006A000CF93CDB7DEB7A7970FB6F894DEBF0FBED6
:1006B000CDBF2C017FA36EA3009709F4B1C06115D3
:1006C000710509F4ADC0DC018D909C901197F40187
:1006D000208831889D96AD90BC909E979F966D9096
:1006E0007C90D0978BE2DB011D928A95E9F7FE01A1
:1006F000319685E0DF011D928A95E9F7A114B104D6
:1007000009F076C0F4012288338886899789281AEF
:10071000390A6EC0730100E010E0A114B10441F485
:10072000D40156966D917D918D919C9159972DC0D4
:100730008114910421F1B2E0AB16B10400F1EEEFA7
:10074000FFEFAE0EBF1EB50180E090E022E030E08A
:10075000A20EB31ED40150962D913C91519740E0CA
:1007600050E00E94390F9B01AC01F401828993890A
:10077000A489B589280F391F4A1F5B1F04C020E0D8
:1007800030E040E050E0CA01B9016E0D7F1D801FCE
:10079000911F1C821B82D401ED91FC9181010619ED
:1007A00017090280F381E02DAE014A5F5F4F20E21E
:1007B00030E0ABE5EA2EA2E0FA2E6E010894C11CEF
:1007C000D11C0995882361F18B819C81680E791E6B
:1007D0006214730488F0C401B5010E94BE005C017C
:1007E00066247724009741F4F201A3A0B4A008C0C6
:1007F0002EA13FA13A8329838D81882309F48ACFD2
:10080000D2019E96BC92AE929D97D0967C926E92AB
:100810009F97EEA1FFA18081882319F081E001C09C
:1008200080E0A7960FB6F894DEBF0FBECDBFCF9184
:10083000DF911F910F91FF90EF90DF90CF90BF90CD
:10084000AF909F908F907F906F905F904F903F9070
:100850002F9008952F923F924F925F926F927F92C6
:100860008F929F92AF92BF92CF92DF92EF92FF92C0
:100870000F931F93DF93CF93CDB7DEB7A8970FB633
:10088000F894DEBF0FBECDBF98A78FA3009709F4E1
:100890005CC1DC0114968D919C911597892B09F40C
:1008A00054C116968D919C911797892B09F44DC1CF
:1008B00068C1E8E2F1E08AE1DF011D928A95E9F77B
:1008C000EFA1F8A5F0932901E09328012184328457
:1008D0004384548459E0220C331C441C551C5A9503
:1008E000D1F7C201B101655F7F4F8F4F9F4F0190DC
:1008F000F081E02DAE014F5F5F4F29E130E00995B7
:10090000882309F445C1E981FA81FBA3EAA32C817C
:100910003D81FB81FCA34E818F8198859EA38DA391
:10092000E985FA856C857D856E887F88888C998CB1
:10093000611471048104910431F4309709F428C1E1
:100940003F01882499246115710509F421C1C90169
:10095000A0E0B0E08E8F9F8FA8A3B9A380E090E0C5
:10096000242F30E040E050E00E94390F6A8F7B8FE7
:100970008C8F9D8F840173012E8D3F8D48A159A1CD
:10098000E21AF30A040B150BE61AF70A080B190B07
:100990008AA19BA101972DA13EA145E0220F331F03
:1009A0004A95E1F7820F931F6AA17BA10E94580F1D
:1009B00080E090E0E61AF70A080B190B8CA1282FAB
:1009C00030E040E050E0C801B7010E947F0F79019C
:1009D0008A0195EFE9169FE0F90690E0090790E09B
:1009E000190708F4D5C0A5EFEA16AFEFFA06A0E0A4
:1009F0000A07A0E01A0728F486E0EFA1F8A580878F
:100A000005C08BE0AFA1B8A518968C9388E1EAE207
:100A1000F1E0DF011D928A95E9F7EAA1FBA15F01F0
:100A2000CC24DD24C401B301A60195010E94390F35
:100A300060932A0170932B0180932C0190932D01D8
:100A4000C601B5012E8D3F8D48A159A10E94390FD5
:100A5000260E371E481E591E20922E0130922F015D
:100A60004092300150923101AFA1B8A518968C91F7
:100A7000863029F064E070E080E090E004C062E03D
:100A800070E080E090E022E030E040E050E0E20EF4
:100A9000F31E041F151FA80197010E94390F6093D0
:100AA00032017093330180933401909335014AA150
:100AB0005BA150933701409336015CA1852F90E0F4
:100AC000DC01EAA1FBA1AE9FC001AF9F900DBE9FCC
:100AD000900D112490933901809338016A8D7B8D9C
:100AE0008C8D9D8DA60195010E94390F20912E01BC
:100AF00030912F014091300150913101620F731FED
:100B0000841F951F60933E0170933F0180934001C5
:100B100090934101ADA1BEA19D0140E050E0B5E040
:100B2000220F331F441F551FBA95D1F7620F731F51
:100B3000841F951F60933A0170933B0180933C01A1
:100B400090933D0128E231E002C020E030E0C9018D
:100B5000A8960FB6F894DEBF0FBECDBFCF91DF9140
:100B60001F910F91FF90EF90DF90CF90BF90AF90CB
:100B70009F908F907F906F905F904F903F902F90BD
:100B800008958091280190912901892BF1F691CE49
:100B90001092290110922801D8CFCF93DF93AC0196
:100BA000DB01009789F16115710571F190968C91C7
:100BB000909784FF29C08091750190917601892BCF
:100BC00019F4E5E7F1E008C08091A6019091A70132
:100BD000892BD1F4E6EAF1E09F012E5F3F4FBD0182
:100BE0008BE2EB010990BE01E90109929E0181505F
:100BF000C1F75183408391968D919C91929796A7CE
:100C000085A710AA17A602C0E0E0F0E0CF01DF91AF
:100C1000CF910895CF93DF939C01FB01009731F0B2
:100C20006115710519F080A184FF23C020E030E038
:100C3000C901DF91CF910895C4E4D1E0DF018BE2D7
:100C40000D9009928150E1F73093430120934201C6
:100C500010926F0110927001109271011092720146
:100C600081A192A1909374018093730122E431E0F9
:100C7000DFCF8091420190914301892BB9F6DCCFFF
:100C80006F927F928F929F92AF92BF92CF92DF929C
:100C9000EF92FF920F931F93CF93DF934C01EB01E1
:100CA0007A01009709F467C06115710509F463C002
:100CB0008881882309F45FC04115510509F45BC0A0
:100CC0008F3209F421968BE2F70111928A95E9F7A8
:100CD00080E1F70180A3370101C0E5018881882305
:100CE00009F44BC0C401B7010E94CD056C01009707
:100CF00009F441C0CE016FE270E00E9495000097B8
:100D000039F0482F4C1B5C010894A11CB11C2AC06F
:100D1000FE0101900020E9F731974E2F4C1B5E0138
:100D2000A40EB11C1FC0F30101900020E9F7319718
:100D3000E619F709E017F107B9F4CE01B301A801EC
:100D40000E94B000009781F4F601118210820C0F0E
:100D50001D1FF8018081882381F0F70180A184FDA7
:100D6000BCCF09C0042F10E0C601B7010E943F03A9
:100D70008823C9F612C080E001C081E0DF91CF91E5
:100D80001F910F91FF90EF90DF90CF90BF90AF90A9
:100D90009F908F907F906F900895F601118210823E
:100DA0009DCF8F929F92AF92BF92CF92DF92EF92A0
:100DB000FF920F93DF93CF93CDB7DEB760970FB657
:100DC000F894DEBF0FBECDBF7C016B015A01490113
:100DD000009709F493C06115710509F48FC00430C0
:100DE0000CF08CC007FD1DC0602F772767FD709544
:100DF000E4E0660F771FEA95E1F762547E4F88279B
:100E000077FD8095982FAE014F5F5F4F20E130E076
:100E1000F7010995882309F471C08D81882309F4AD
:100E20006DC08091DF01882309F068C07CC08D818E
:100E30008093DF012A8530E040E050E0542F432FBB
:100E4000322F22278B8590E0A0E0B0E0DC019927CB
:100E50008827282B392B4A2B5B2B898590E0A0E033
:100E6000B0E0282B392B4A2B5B2B8C8590E0A0E03F
:100E7000B0E0B82FAA2799278827282B392B4A2B8F
:100E80005B2B2093E0013093E1014093E20150930A
:100E9000E3012E8530E040E050E0542F432F322F05
:100EA00022278F8590E0A0E0B0E0DC019927882719
:100EB000282B392B4A2B5B2B8D8590E0A0E0B0E0EE
:100EC000282B392B4A2B5B2B888990E0A0E0B0E0DF
:100ED000B82FAA2799278827282B392B4A2B5B2B39
:100EE0002093E4013093E5014093E6015093E7013C
:100EF00003C08FEF8093DF019F0102C020E030E04C
:100F0000C90160960FB6F894DEBF0FBECDBFCF917A
:100F1000DF910F91FF90EF90DF90CF90BF90AF9057
:100F20009F908F900895E7EDF1E081E1DF011D9240
:100F30008A95E9F7F092D801E092D701D092DA01D0
:100F4000C092D901B092DC01A092DB019092DE0147
:100F50008092DD0107FF6BCFCCCF282F8FEF8EBDA6
:100F60000DB407FEFDCF8DB58F778DBD8EB5822F69
:100F700080648EBD0DB407FEFDCF8DB58F778DBD1E
:100F8000872F9927AA27BB278EBD0DB407FEFDCF5B
:100F90008DB58F778DBDCB01AA27BB278EBD0DB434
:100FA00007FEFDCF8DB58F778DBDBB27A72F962F61
:100FB000852F8EBD0DB407FEFDCF8DB58F778DBD0E
:100FC0004EBD0DB407FEFDCF8DB58F778DBD2223AD
:100FD00019F0283069F406C085E98EBD0DB407FE0E
:100FE000FDCF0BC087E88EBD0DB407FEFDCF05C059
:100FF0008FEF8EBD0DB407FEFDCF8DB58F778DBD04
:101000001092E9011092E80120E030E09FEF13C058
:101010009EBD0DB407FEFDCF8DB58F778DBD8EB50E
:10102000A9014F5F5F4F8F3F29F03093E901209373
:10103000E80108959A012A30310550F33093E9010F
:101040002093E8018FEF08952F923F924F925F9285
:101050006F927F928F929F92AF92BF92CF92DF92C8
:10106000EF92FF920F931F93CF93DF934B015C019D
:101070002A01390133243A9422242394AFC0E40195
:10108000D170CE01A0E0B0E085017401E81AF90A40
:101090000A0B1B0BC12CB2E0DB2ECC1ADD0A6C1440
:1010A0007D0408F463018091EA039091EB03A09121
:1010B000EC03B091ED03E816F9060A071B07F9F0F7
:1010C0000E940809882309F48FC0209729F480E042
:1010D000C81682E0D80658F4C801B7014AEE51E0BC
:1010E00020E032E00E942209882309F47DC0E092CA
:1010F000EA03F092EB030093EC031093ED038AEE06
:10110000481681E0580671F09E0126513E4FC901F4
:10111000B201A6010E948C001092EE036C147D04B3
:1011200009F460C0289888E1B801A7010E94AD07C2
:10113000882311F0289A58C08EEF8EBD0DB407FE9B
:10114000FDCF8DB58F778DBD1092E9011092E8012A
:10115000EAEEF1E020E030E00BC080818EBD0DB4FE
:1011600007FEFDCF31968DB58F778DBD2F5F3F4F39
:1011700082E02030380788F33093E9012093E801BA
:101180003EBC0DB407FEFDCF8DB58F778DBD3EBC47
:101190000DB407FEFDCF8DB58F778DBD3EBC0DB470
:1011A00007FEFDCF8DB58F778DBD8EB58F3FB1F723
:1011B0008EBD0DB407FEFDCF8DB58F778DBD8EB57D
:1011C000289A4C0C5D1CC601A0E0B0E0880E991E68
:1011D000AA1EBB1E6C187D082092EE0361147104D8
:1011E00009F04DCF81E001C080E0DF91CF911F91E8
:1011F0000F91FF90EF90DF90CF90BF90AF909F90B6
:101200008F907F906F905F904F903F902F900895B8
:101210008091EE03882311F081E008956091EA0344
:101220007091EB038091EC039091ED034AEE51E055
:1012300020E032E00E942408882319F081E08093A6
:10124000EE0308953F924F925F926F927F928F923A
:101250009F92AF92BF92CF92DF92EF92FF920F9345
:101260001F93CF93DF933B014C016A012901332483
:101270003A9496C01FEFA12E11E0B12EA620B72000
:10128000C501A0E0B0E084017301E81AF90A0A0B75
:101290001B0BC0E0D2E0CA19DB094C165D0608F44E
:1012A000E2018091EA039091EB03A091EC03B091ED
:1012B000ED03E816F9060A071B0709F45EC00E9451
:1012C0000809882309F471C0289881E1B801A701B1
:1012D0000E94AD07882319F0289A80E066C03EBCC2
:1012E0000DB407FEFDCF8DB58F778DBD8EB58E3FCA
:1012F000B1F7EAEEF1E020E030E00BC03EBC0DB407
:1013000007FEFDCF8DB58F778DBD8EB581932F5F95
:101310003F4F82E02030380788F33093E901209373
:10132000E801E092EA03F092EB030093EC031093E0
:10133000ED03950126513E4FC601B901AE010E9451
:101340008C003EBC0DB407FEFDCF8DB58F778DBDF3
:101350008EB53EBC0DB407FEFDCF8DB58F778DBD2C
:101360008EB5289A3EBC0DB407FEFDCFCC0EDD1E17
:101370008DB58F778DBD8EB50AC0950126513E4F34
:10138000C601B901AE010E948C00CC0EDD1E4C1AC4
:101390005D0ACE01A0E0B0E0680E791E8A1E9B1E99
:1013A0004114510409F066CF81E0DF91CF911F9184
:1013B0000F91FF90EF90DF90CF90BF90AF909F90F4
:1013C0008F907F906F905F904F903F9008952F92F5
:1013D0003F924F925F926F927F928F929F92AF92C5
:1013E000BF92CF92DF92EF92FF920F931F93DF9302
:1013F000CF9300D000D0CDB7DEB74B015C013A01EE
:101400003C832B832701DA82C98241155105A9F15A
:101410002115310591F10217130778F1E114F10458
:1014200061F119013094219431083394021B130B9C
:101430006901EE24FF24C501B401A3012B813C8185
:101440000E9422098823C9F0C301B501A4012981A2
:101450003A81F2010995882391F0020D131D8B81C9
:101460009C81800F911F2B813C818217930738F05C
:101470008C0C9D1CAE1CBF1CDECF80E001C081E047
:101480000F900F900F900F90CF91DF911F910F91C0
:10149000FF90EF90DF90CF90BF90AF909F908F9094
:1014A0007F906F905F904F903F902F9008951F9383
:1014B000CF93DF93239A259A209A24982C9A289ADE
:1014C00083E58CBD8DB58E7F8DBD1092EF0320E03E
:1014D00030E09FEF0AC09EBD0DB407FEFDCF8DB575
:1014E0008F778DBD8EB52F5F3F4F2A30310598F332
:1014F0003093E9012093E80128981092E9011092B5
:10150000E80180E040E050E060E070E00E94AD075C
:10151000182F813079F08091E8019091E90121E064
:101520008F3F920709F44DC001969093E901809393
:10153000E801E7CF87E340E050E060E070E00E9420
:10154000AD0789E240E050E060E070E00E94AD0746
:1015500082FD02C01093EF031092E9011092E8019E
:101560008091EF03C82FD0E0C370D070209749F06E
:1015700087E340E050E060E070E00E94AD0789E260
:1015800001C081E040E050E060E070E00E94AD0703
:1015900080FF0EC08091E8019091E9012FE78F3F15
:1015A000920779F001969093E9018093E801DECFEC
:1015B00080E140E052E060E070E00E94AD078823E7
:1015C00019F0289A80E022C0289A8CB58C7F8CBDB7
:1015D0008DB581608DBD8FEF9FEFAFEFBFEF809333
:1015E000EA039093EB03A093EC03B093ED0381E047
:1015F0008093EE0360E070E080E090E04AEE51E01E
:1016000020E032E00E942209811181E0DF91CF9138
:101610001F9108954F925F926F927F928F929F9247
:10162000AF92BF92CF92DF92EF92FF920F931F93F0
:10163000CF93DF935B016C014A01E9013801270177
:101640004115510571F10115110559F1FF242115BD
:10165000310511F5FF24F3941FC0C401B601A501A3
:101660009201F30109958C010097E9F0FF2019F42C
:10167000C817D907B0F0C601B501A40198010E94AE
:101680002408882371F0C801A0E0B0E0A80EB91EBC
:10169000CA1EDB1EC01BD10BFF20F9F62097E9F60E
:1016A00002C080E001C081E0DF91CF911F910F91D6
:1016B000FF90EF90DF90CF90BF90AF909F908F9072
:1016C0007F906F905F904F900895CF93DF93EB01E1
:1016D00060E175E00E943F03882359F0CE0160E18C
:1016E00075E00E94A9008EEC95E0BE010E942E0FCD
:1016F00081E0DF91CF9108950F930E94570A8823CC
:1017000009F445C082E299E067EE79E044E258E0EE
:101710002AE03BE000E00E94D10690933E058093D2
:101720003D05892B89F482E299E067EE79E044E295
:1017300058E02AE03BE00FEF0E94D10690933E056F
:1017400080933D05892B19F180913D0590913E05CF
:101750000E942A0490933C0580933B050097B9F0C2
:1017600060E071E040E155E00E94400680913B0559
:1017700090913C0560E175E00E94CD0590930F05C6
:1017800080930E0520E0892B19F021E001C020E0B4
:10179000822F0F910895EF92FF920F931F93CF9393
:1017A000DF93EB018A017901CB010E944E0208C050
:1017B000C701B8010E94A000009711F481E006C0A3
:1017C000CE01B7010E943F03882391F7DF91CF91AB
:1017D0001F910F91FF90EF900895EF92FF920F935A
:1017E0001F93DF93CF93CDB7DEB7AB970FB6F894C7
:1017F000DEBF0FBECDBF8C017E010894E11CF11C41
:1018000097010E94CB0B882319F420E030E005C03B
:10181000C801B7010E940A069C01C901AB960FB628
:10182000F894DEBF0FBECDBFCF91DF911F910F9116
:10183000FF90EF900895CF93DF930E947C0B32C00E
:1018400060910E0570910F0580913B0590913C05CC
:1018500040EF54E00E94ED0B9093400580933F05CC
:1018600060EF73E040E051E00E940401EC018EEC77
:1018700095E060EF73E00E942E0F80913F059091FC
:1018800040051C161D0664F30E94FE0068EE73E01E
:1018900080E090E00E94D10C8EEC95E062E071E077
:1018A0000E942E0F80910E0590910F0560EF74E05D
:1018B0000E94650B882321F6FFCF80E060E00E9444
:1018C000350D81E061E00E94350D8EEC95E040E839
:1018D00055E260E070E00E94920D88E061E00E94B5
:1018E000350D8BE061E00E94350D8CE060E00E94D8
:1018F000350D8DE061E00E94350D8AE061E00E94C7
:10190000350D08950E94FB0C0E945D0C0E941B0C7B
:10191000FDCF1F920F920FB60F9211242F933F937A
:101920008F939F93AF93BF93809145059091460508
:10193000A0914705B0914805309149050196A11D38
:10194000B11D232F2D5F2D3720F02D570196A11D9E
:10195000B11D209349058093450590934605A093BA
:101960004705B09348058091410590914205A091AB
:101970004305B09144050196A11DB11D8093410519
:1019800090934205A0934305B0934405BF91AF9156
:101990009F918F913F912F910F900FBE0F901F90AD
:1019A0001895EF92FF920F931F937B018C018FB7D5
:1019B000F894409145055091460560914705709116
:1019C00048058FBF2FB7F894809145059091460543
:1019D000A0914705B09148052FBF841B950BA60B1E
:1019E000B70BE816F9060A071B0760F71F910F915E
:1019F000FF90EF900895789484B5826084BD84B59B
:101A0000816084BD85B5826085BD85B5816085BDF9
:101A1000EEE6F0E0808181608083E1E8F0E08081A3
:101A200082608083808181608083E0E8F0E0808153
:101A300081608083E1EBF0E0808184608083E0EB73
:101A4000F0E0808181608083EAE7F0E0808184605B
:101A500080838081826080838081816080838081B7
:101A6000806880831092C1000895282F30E0C9015A
:101A700086569F4FFC0194912A573F4FF90184915C
:101A8000882391F0E82FF0E0EE0FFF1FE859FF4F99
:101A9000A591B491662329F48C91909589238C9318
:101AA00008958C91892B8C9308951F920F920FB6F5
:101AB0000F9211242F933F934F935F936F937F93D4
:101AC0008F939F93AF93BF93EF93FF934091C60083
:101AD000E091CA05F091CB05CF01019660E870E076
:101AE0000E946C0F9C018091CC059091CD05281728
:101AF000390739F0E65BFA4F40833093CB052093EA
:101B0000CA05FF91EF91BF91AF919F918F917F9106
:101B10006F915F914F913F912F910F900FBE0F905A
:101B20001F9018955F926F927F928F929F92AF92C3
:101B3000BF92CF92DF92EF92FF920F931F93CF93BA
:101B4000DF93EC013A014B01413482E458078FE006
:101B5000680780E078070CF07FC060E874E88EE1E9
:101B600090E0A40193010E94A10F21503040404019
:101B70005040CA01B90122E030E040E050E00E944C
:101B8000A10F59016A01A601950120953095409554
:101B9000509594E0220F331F441F551F9A95D1F79B
:101BA00060E074E284EF90E00E94A10FCA01B901E5
:101BB0002FEF30E040E050E00E94390FA401930184
:101BC0000E94A10FC90181509F4F181619061CF4DD
:101BD000522E5A9403C055245394521A60E079E06F
:101BE0008DE390E0A40193010E94A10F21503040A9
:101BF00040405040CA01B90122E030E040E050E0EE
:101C00000E94A10F209530954095509583E0220FBA
:101C1000331F441F551F8A95D1F760E074E284EFAB
:101C200090E00E94A10FCA01B9012FEF30E040E01F
:101C300050E00E94390FA40193010E94A10FC90135
:101C400081509F4F181619061CF4822F815002C034
:101C500081E0821B851500F5E885F98581E090E03B
:101C60000A8802C0880F991F0A94E2F7808360E017
:101C700079E08DE390E0A40193010E94A10F21502F
:101C8000304040405040CA01B90122E030E040E01D
:101C900050E00E94A10F04C0E885F98510829501EB
:101CA000EC81FD813083EE81FF812083EA85FB8515
:101CB000208141E050E0CA010E8402C0880F991FC4
:101CC0000A94E2F7282B2083EA85FB852081CA014C
:101CD0000F8402C0880F991F0A94E2F7282B2083F3
:101CE000EA85FB858081088802C0440F551F0A944D
:101CF000E2F7842B8083DF91CF911F910F91FF90AA
:101D0000EF90DF90CF90BF90AF909F908F907F909B
:101D10006F905F900895FC01A085B18521898C9119
:101D200090E0022E02C0959587950A94E2F780FF15
:101D3000F6CF0484F585E02D6083089580E291E07C
:101D40009093CF058093CE058AE495E09093D105DA
:101D50008093D00585EC90E09093D3058093D205D5
:101D600084EC90E09093D5058093D40580EC90E0CE
:101D70009093D7058093D60581EC90E09093D90598
:101D80008093D80586EC90E09093DB058093DA058C
:101D900084E08093DC0583E08093DD0587E0809319
:101DA000DE0585E08093DF0581E08093E0050895FE
:101DB0000F931F93CF93DF938C01EB0109C0219602
:101DC000D801ED91FC910190F081E02DC8010995B9
:101DD00068816623A1F7DF91CF911F910F9108953C
:101DE000EF92FF920F931F93CF93DF938C017B01B0
:101DF000EA010CC0D7016D917D01D801ED91FC91F4
:101E00000190F081E02DC80109952197209791F765
:101E1000DF91CF911F910F91FF90EF900895DC011A
:101E2000ED91FC910280F381E02D099508950F93C7
:101E30001F938C01DC01ED91FC910190F081E02D6C
:101E40006DE00995D801ED91FC910190F081E02DB4
:101E5000C8016AE009951F910F9108950F931F9390
:101E60008C010E940F0FC8010E94170F1F910F9144
:101E70000895629FD001739FF001829FE00DF11DD4
:101E8000649FE00DF11D929FF00D839FF00D749FF4
:101E9000F00D659FF00D9927729FB00DE11DF91FA0
:101EA000639FB00DE11DF91FBD01CF0111240895FD
:101EB000AA1BBB1B51E107C0AA1FBB1FA617B70770
:101EC00010F0A61BB70B881F991F5A95A9F780958C
:101ED0009095BC01CD01089597FB092E07260AD0E5
:101EE00077FD04D0E5DF06D000201AF470956195E7
:101EF0007F4F0895F6F7909581959F4F0895A1E241
:101F00001A2EAA1BBB1BFD010DC0AA1FBB1FEE1F73
:101F1000FF1FA217B307E407F50720F0A21BB30BBE
:101F2000E40BF50B661F771F881F991F1A9469F73A
:101F300060957095809590959B01AC01BD01CF0196
:101F4000089597FB092E05260ED057FD04D0D7DF44
:101F50000AD0001C38F450954095309521953F4F9C
:101F60004F4F5F4F0895F6F7909580957095619566
:101F70007F4F8F4F9F4F0895EE0FFF1F0590F491F5
:081F8000E02D0994F894FFCF55
:101F88002F004E6578742046696C652E2E2E000150
:101F9800030507090E10121416181C1E0000000075
:061FA8008B0ED80EF00EB6
:00000001FF
