:100000000C94A2000C94CA000C94CA000C94CA0070
:100010000C94CA000C94CA000C94CA000C94CA0038
:100020000C94CA000C94CA000C94CA000C94CA0028
:100030000C94CA000C94CA000C94CA000C94CA0018
:100040000C949B110C94CA000C9498120C94CA0046
:100050000C94CA000C94CA000C94CA000C94CA00F8
:100060000C94CA000C94CA007C3C3E5E2B3D3F2F92
:100070005B5D3B2C2A225C00636C6F73652F77728B
:10008000697465006F70656E00417070656E6469BB
:100090006E6720746F3A20006F70656E526F6F74D8
:1000A00000766F6C756D652E696E697400636172A0
:1000B000642E696E6974005479706520616E7920D0
:1000C00063686172616374657220746F2073746118
:1000D0007274005344206572726F723A2000657228
:1000E000726F723A200000000000240027002A00EE
:1000F00000000000250028002B0000000000230065
:100100002600290004040404040404040202020278
:1001100002020303030303030102040810204080CA
:10012000010204081020010204081020000000074A
:1001300000020100000304060000000000000000AF
:100140002310F51311241FBECFEFD8E0DEBFCDBFC3
:1001500011E0A0E0B1E0EAE4FCE202C005900D92FB
:10016000A434B107D9F714E0A4E4B1E001C01D92B2
:10017000AE34B107E1F711E0C4E4D1E004C0229746
:10018000FE010E941F16C034D107C9F70E949611C4
:100190000C9423160C940000FB01DC0141505040EC
:1001A00088F08D9181341CF08B350CF4805E619168
:1001B00061341CF06B350CF4605E861B611171F3C9
:1001C000990B0895881BFCCFDC016EBDFA0120E07D
:1001D00030E00DB407FEFDCF80818EBD0DB407FE6B
:1001E000FDCF81818EBD2E5F3F4F329682E0203061
:1001F000380779F70DB407FEFDCF8FEF8EBD0DB434
:1002000007FEFDCF8FEF8EBD0DB407FEFDCF8FEF44
:100210008EBD0DB407FEFDCF9EB5892F8F71853041
:1002200011F481E0089582E114968C931497159649
:100230009C9380E00895CF93DF93EC018E81882317
:10024000D9F08FEF8EBD2F8138854FEF04C00DB4EC
:1002500007FEFDCF4EBD2F5F3F4FC9010197815073
:100260009240A8F338872F830DB407FEFDCF88E0B6
:1002700061E00E944B121E82DF91CF910895FF92A0
:100280000F931F93CF93DF93EC010E94E3118B0137
:10029000FF24FA940AC00E94E311601B710B6D5297
:1002A000714018F08DE08C830EC0FEBC0DB407FECB
:1002B000FDCF9EB59F3F79F39E3F11F481E004C0CE
:1002C00081E18C839D8380E0DF91CF911F910F911D
:1002D000FF900895FF920F931F93CF93DF938B01AD
:1002E0000E94E311EB01FF24FA9409C00E94E3117C
:1002F0006C1B7D0B0617170710F480E008C0FEBCCE
:100300000DB407FEFDCF8EB58F3F81F781E0DF9101
:10031000CF911F910F91FF900895BF92CF92DF92DE
:10032000EF92FF920F931F938C01B62E69017A0111
:100330000E941B0188E060E00E944B12C8016CE241
:1003400071E00E946A018B2D80648EBD0DB407FEA2
:10035000FDCF28E130E0D701C601022E04C0B695DA
:10036000A795979587950A94D2F78EBD0DB407FE91
:10037000FDCF285030408FEF283F380761F7BB2072
:1003800011F485E906C088E0B81611F487E801C0C9
:100390008FEF8EBD0DB407FEFDCF9FEF2FEF2EBD6B
:1003A0000DB407FEFDCF8EB587FF04C0992311F071
:1003B0009150F5CF1F910F91FF90EF90DF90CF906C
:1003C000BF9008958F929F92AF92BF92CF92DF928B
:1003D000EF92FF920F931F93CF93DF93EC015A019B
:1003E0006B014901E114F10409F475C0C701820FE2
:1003F000931F8150924008F070C08E81882371F065
:1004000088819981AA81BB81481759076A077B07B0
:1004100029F48F8198858816990618F5A882B982E3
:10042000CA82DB828A85833039F059E0AA0CBB1C72
:10043000CC1CDD1C5A95D1F7CE0161E1A6019501D6
:100440000E948D01882319F083E08C8346C0CE0181
:100450000E943F01882309F440C018861F8281E072
:100460008E838FEF8EBD8F8198852FEF05C00DB4E1
:1004700007FEFDCF2EBD019688159905C0F398871C
:100480008F83D701119720E030E09FEF0BC00DB4B0
:1004900007FEFDCF8EB5F801E20FF31F80839EBDEE
:1004A0002F5F3F4F2A173B0790F30DB407FEFDCF98
:1004B0008EB5A00FB11F8C932F8138852E0D3F1D57
:1004C00038872F838985882319F02050324018F00F
:1004D000CE010E941B0181E001C080E0DF91CF913D
:1004E0001F910F91FF90EF90DF90CF90BF90AF9052
:1004F0009F908F900895CF92DF92EF92FF920F938B
:100500001F93CF93DF93EC017A018B0169014115B1
:1005100051056105710511F48AE037C08A85833081
:1005200039F069E0EE0CFF1C001F111F6A95D1F72E
:10053000CE0168E1A80197010E948D01882311F086
:1005400084E023C0CE016EEFA6010E94E400882360
:10055000F1F0CE0168E572E00E946A01882311F48F
:1005600089E013C0CE016DE020E030E040E050E0D3
:100570000E948D01882341F48FEF8EBD0DB407FEDC
:10058000FDCF8EB5882361F083E18C8380E0DF911D
:10059000CF911F910F91FF90EF90DF90CF90089532
:1005A00088E061E00E944B1281E0F1CFBF92CF92D0
:1005B000DF92EF92FF920F931F93CF93DF93EC01A3
:1005C000B62E1A8619861E821C8288E061E00E947F
:1005D0002B1288E061E00E944B128CE060E00E94E8
:1005E0002B128BE061E00E942B128DE061E00E94F3
:1005F0002B1283E58CBD80E09FEF9EBD0DB407FEFE
:10060000FDCF8F5F8A30C9F788E060E00E944B120F
:1006100080E090E02FEF2EBD0DB407FEFDCF3EB57C
:10062000019632E081309307B1F710E0CE0160E02F
:1006300020E030E040E050E00E948D01082F813042
:1006400041F01A3021F481E08C830D831DC01F5FBF
:10065000EDCFCE0168E02AEA31E040E050E00E94B0
:100660008D0182FF02C00A8713C080E02FEF2EBDEC
:100670000DB407FEFDCF9EB58F5F8430C1F79A3A67
:1006800029F082E08C839D8380E05CC082E08A87D1
:100690000E94E3116B018A85823021F0EE24FF2451
:1006A000870105C0E12CF12C012DF0E41F2FCE01B4
:1006B00067E320E030E040E050E00E948D01CE0191
:1006C00069E2A80197010E948D01882349F00E94E8
:1006D000E3116C197D09615D7740E8F286E00EC098
:1006E0008A85823011F5CE016AE320E030E040E0F7
:1006F00050E00E948D01882319F085E08C83C4CFDF
:100700008FEF8EBD0DB407FEFDCF8EB5807C803C93
:1007100011F483E08A8780E09FEF9EBD0DB407FE51
:10072000FDCF2EB58F5F8330C1F78CB58C7F8CBD2C
:10073000BB2019F48DB581608DBD88E061E00E9419
:100740004B1281E0DF91CF911F910F91FF90EF90BD
:10075000DF90CF90BF9008951F93CF93DF93EC016C
:10076000DB0180E090E020E2FD01E80FF91F20832B
:1007700001968B309105C1F750E017E028C04E324A
:1007800029F028E630E0642F70E00BC01A3041F108
:1007900058E01AE01CC0992787FD909586179707A7
:1007A000F9F0F9012F5F3F4F84918823A1F71517C6
:1007B000B8F04132A8F04F3798F4842F81568A312F
:1007C00008F44052FD01E50FF11D40835F5F499140
:1007D0004423A9F690E08C91803219F091E001C099
:1007E00090E0892FDF91CF911F9108958091480368
:1007F000882399F140912B0150912C0160912D019A
:1008000070912E01809146039091470326E431E0D8
:100810000E947B02882319F14091490350914A03B9
:1008200060914B0370914C034115510561057105B1
:1008300091F0809146039091470326E431E00E94B5
:100840007B02882361F01092490310924A031092B0
:100850004B0310924C031092480381E0089580E00E
:100860000895EF92FF920F931F937B018C010E94DA
:10087000F6038823A9F0E6E4F1E0119283E0E63480
:10088000F807D9F7E0922B01F0922C0100932D018B
:1008900010932E018091480381608093480381E08A
:1008A0001F910F91FF90EF9008959F92AF92BF928A
:1008B000CF92DF92EF92FF920F931F935B016C0137
:1008C000942E80912B0190912C01A0912D01B0913B
:1008D0002E018A159B05AC05BD05E9F00E94F603C3
:1008E000882301F18091460390914703B601A50149
:1008F00020E030E006E411E0E12CE2E0FE2E0E9470
:10090000E201882379F0A0922B01B0922C01C092D1
:100910002D01D0922E0180914803892980934803AC
:1009200081E001C080E01F910F91FF90EF90DF9078
:10093000CF90BF90AF909F9008958F929F92AF926B
:10094000BF92CF92DF92EF92FF920F931F93CF93BC
:10095000DF936C01142F7093470360934603442385
:1009600021F488249924540140C0453008F01CC16A
:1009700060E070E080E090E040E00E945504882351
:1009800009F412C1C12FD0E02197FE0104E0EE0F5F
:10099000FF1F0A95E1F7EA5BFE4FE254FE4F8081AC
:1009A000EE5BF14090E08F779070892B09F0FCC0EE
:1009B000E653FE4F80819181A281B38184369105F7
:1009C000A105B10508F4F0C014E0CC0FDD1F1A95A5
:1009D000E1F7C45FDC4F88809980AA80BB808114D6
:1009E0009104A104B10409F4DFC0C501B40140E0E1
:1009F0000E945504882309F4D7C080915101909139
:100A000052018050924009F0CFC02091560122231C
:100A100009F4CAC08091540190915501892B09F4C1
:100A2000C3C080915301882309F4BEC0F601228B14
:100A3000809153018483158661E070E007C04F5FA9
:100A4000F60145874150483008F0AEC0F6014585B3
:100A5000848190E09B01042E02C0220F331F0A9470
:100A6000E2F78217930759F720915C0130915D01FD
:100A70002115310519F040E050E008C020916A01CD
:100A800030916B0140916C0150916D01F60125830D
:100A9000368347835087E0905401F090550100E081
:100AA00010E0E80CF91C0A1D1B1DE38AF48A058B73
:100AB000168B8091570190915801918F808F609192
:100AC000560170E080E090E00E948E156E0D7F1D53
:100AD000801F911FF601628F738F848F958F2091F5
:100AE000570130915801B5E0220F331FBA95E1F755
:100AF00021503E4F232F3327269540E050E0260F0C
:100B0000371F481F591F26873787408B518B80918D
:100B1000590190915A01009719F0A0E0B0E008C087
:100B20008091660190916701A0916801B09169017F
:100B300085017401E21AF30A040B150BA801970151
:100B4000280F391F4A1F5B1FF601058404C0569504
:100B50004795379527950A94D2F72187328743879F
:100B60005487253FFFE03F07F0E04F07F0E05F07C5
:100B700010F48CE006C0255F3F4F4040504028F401
:100B800080E1F601878B81E010C080917201909125
:100B90007301A0917401B0917501F601828F938F5A
:100BA000A48FB58F80E2EECF80E0DF91CF911F91CF
:100BB0000F91FF90EF90DF90CF90BF90AF909F90FC
:100BC0008F9008954F925F926F927F928F929F9233
:100BD000AF92BF92CF92DF92EF92FF920F931F934B
:100BE000CF93DF93EC016A017B0128013901423088
:100BF00051056105710508F46FC089859A85AB853B
:100C0000BC850196A11DB11D84179507A607B707DE
:100C100008F462C02B893C894D895E898F898031B7
:100C200029F499278F2D7E2D6D2D09C0C701B6019E
:100C3000E7E09695879577956795EA95D1F74B010B
:100C40005C01820E931EA41EB51E80912B01909113
:100C50002C01A0912D01B0912E0188169906AA06AB
:100C6000BB0639F0C501B40140E00E945504882359
:100C700099F18F89803149F4F601F070EE0FFF1F72
:100C8000EA5BFE4F518240820DC0F601EF77F070B3
:100C9000EE0FFF1FEE0FFF1FEA5BFE4F40825182F7
:100CA00062827382809148038160809348038A89BD
:100CB000823080F08D819E81AF81B885880E991E2B
:100CC000AA1EBB1E8092490390924A03A0924B0336
:100CD000B0924C0381E001C080E0DF91CF911F9181
:100CE0000F91FF90EF90DF90CF90BF90AF909F90CB
:100CF0008F907F906F905F904F900895CF92DF928A
:100D0000EF92FF920F931F93CF93DF93EC017A0141
:100D10008B01690189859A85AB85BC850196A11DEA
:100D2000B11D84179507A607B70708F450C02B8993
:100D30003C894D895E898F89803129F49927812FDB
:100D4000702F6F2D09C0C801B70117E096958795E0
:100D5000779567951A95D1F7260F371F481F591FAA
:100D600080912B0190912C01A0912D01B0912E0129
:100D7000281739074A075B0739F0CA01B90140E073
:100D80000E945504882319F18F89803159F4F701A5
:100D9000F070EE0FFF1FEA5BFE4F80819181A0E0B3
:100DA000B0E00EC0F701EF77F070EE0FFF1FEE0F0F
:100DB000FF1FEA5BFE4F80819181A281B381BF70EA
:100DC000F60180839183A283B38381E001C080E038
:100DD000DF91CF911F910F91FF90EF90DF90CF9017
:100DE0000895AF92BF92CF92DF92EF92FF920F934E
:100DF0001F93DF93CF9300D000D0CDB7DEB76C0147
:100E00007A018B0182E090E0A0E0B0E0F6018083FF
:100E10009183A283B3835E010894A11CB11CC60117
:100E2000B801A70195010E947E06882319F1C60129
:100E3000B801A70100E010E020E030E00E94E205E8
:100E40008823C1F0E980FA800B811C81F601878933
:100E5000803129F088EF9FEFAFEFBFE004C088EF4B
:100E60009FEFA0E0B0E0E816F9060A071B07B8F20A
:100E700081E001C080E00F900F900F900F90CF9114
:100E8000DF911F910F91FF90EF90DF90CF90BF9077
:100E9000AF9008958F929F92AF92BF92CF92DF92C0
:100EA000EF92FF920F931F93DF93CF9300D000D068
:100EB000CDB7DEB77C018B0129833A834B835C83FA
:100EC000FB0110821182128213824E010894811C50
:100ED000911CA12C92E0B92EC12CD12C49815A81B0
:100EE0006B817C81C70194010E947E06882379F181
:100EF000D601C501F701058404C0880F991FAA1FF8
:100F0000BB1F0A94D2F7F8012081318142815381BD
:100F1000280F391F4A1F5B1F20833183428353836D
:100F200029813A814B815C81F7018789803129F0E1
:100F300088EF9FEFAFEFBFE004C088EF9FEFA0E026
:100F4000B0E0281739074A075B0740F281E00F90AD
:100F50000F900F900F90CF91DF911F910F91FF9005
:100F6000EF90DF90CF90BF90AF909F908F900895BB
:100F70000F931F93CF93DF93EC018B018B81882319
:100F800009F041C0FB0187898031B1F482E08B8395
:100F90001D8A1E8A1F8A188E808D918DA0E0B0E078
:100FA00025E0880F991FAA1FBB1F2A95D1F7898BAF
:100FB0009A8BAB8BBC8B15C0803229F583E08B8379
:100FC000FB01228D338D448D558D2D8B3E8B4F8BA8
:100FD000588FBE016F5E7F4FC8010E944A07882369
:100FE00091F01A8F098F81E08A831C821D821E82F4
:100FF0001F82188619861A861B861C861D861E86E9
:101000001F86188A01C080E0DF91CF911F910F9158
:1010100008952F923F924F925F926F927F928F929C
:101020009F92AF92BF92CF92DF92EF92FF920F9377
:101030001F93DF93CF93CDB7DEB72F970FB6F894FA
:10104000DEBF0FBECDBF1C017B876A872C873D8723
:101050004E875F87DB010D911D912D913C9101150C
:1010600011052105310549F0480159010894811CF9
:10107000911CA11CB11C198610C0FC0180809180BC
:10108000A280B38019868C859D85AE85BF8501972A
:10109000A105B10511F491E09987D10119968D91BF
:1010A0009D910D90BC91A02D0196A11DB11D8D8328
:1010B0009E83AF83B88775016401442455243201AF
:1010C0008E010F5F1F4FF10181859285A385B48545
:1010D000481659066A067B0608F090C08D819E81ED
:1010E000AF81B8858C159D05AE05BF0550F442E073
:1010F000842E912CA12CB12C32E0C32ED12CE12CCA
:10110000F12CC101B701A60198010E947E06882337
:1011100009F474C089819A81AB81BC81A7019601D1
:101120002F5F3F4F4F4F5F4F0097A105B10519F05B
:1011300049015A010DC0281939094A095B098C85F2
:101140009D85AE85BF85281739074A075B0759F08B
:101150000894411C511C611C711C0894C11CD11CB9
:10116000E11CF11CB0CFC101A601B7010FEF1FEFC9
:101170002FEF3FE00E94E205882399F43FC026014B
:10118000370108944108510861087108C101B30191
:10119000A201970186010E94E205882379F173017B
:1011A00062018C149D04AE04BF0448F3AA85BB857C
:1011B0004D915D916D917C914115510561057105D0
:1011C00039F0C101950184010E94E2058823B1F044
:1011D000EA85FB8580829182A282B382F985FF2312
:1011E00059F00894811C911CA11CB11CD1018D9255
:1011F0009D92AD92BC92139781E001C080E02F9642
:101200000FB6F894DEBF0FBECDBFCF91DF911F9117
:101210000F91FF90EF90DF90CF90BF90AF909F9095
:101220008F907F906F905F904F903F902F90089598
:10123000CF93DF93EC01BC016C5F7F4F898D9A8D5A
:1012400021E030E040E050E00E9409088823A1F04E
:101250008D899E89AF89B88D0097A105B10559F494
:101260008C819D81AE81BF818D8B9E8BAF8BB88F22
:101270008A8180688A8381E0DF91CF910895DF922F
:10128000EF92FF920F931F93CF93DF93EC010E9495
:101290001809882309F44EC0E98DFA8DEC80FD8091
:1012A0000E811F818EEF9FEFAFEFBFEFE80EF91EAB
:1012B0000A1F1B1F058404C0EE0CFF1C001F111F1A
:1012C0000A94D2F786859785A089B189E80EF91E20
:1012D0000A1F1B1FD4800894E108F10801091109B5
:1012E0000BC0C801B7016D0D711D811D911D0E94BC
:1012F00031048823F9F0DA94DD2099F7E98DFA8D2D
:1013000020E032E040E050E0058404C0220F331FAB
:10131000441F551F0A94D2F789899A89AB89BC89E1
:10132000820F931FA41FB51F898B9A8BAB8BBC8B2D
:1013300081E001C080E0DF91CF911F910F91FF907C
:10134000EF90DF9008956F927F928F929F92AF926D
:10135000BF92CF92DF92EF92FF920F931F93CF93A2
:10136000DF93EC017A018B012B81222309F480C0E9
:1013700089899A89AB89BC8984179507A607B7071D
:1013800008F476C085C0E114F1040105110549F4A3
:101390001C821D821E821F82188619861A861B8651
:1013A00065C0288539854A855B85E98DFA8D8585F7
:1013B00090E00996215030404040504039014A01A8
:1013C000082E04C096948794779467940A94D2F771
:1013D0002F5F3F4F4F4F5F4F0894E108F10801091D
:1013E00011095701680104C0D694C794B794A79413
:1013F0008A95D2F70894E11CF11C011D111DA61459
:10140000B704C804D90428F0211531054105510558
:1014100049F48D899E89AF89B88D8C839D83AE8375
:10142000BF8316C0A618B708C808D90811C04C81D8
:101430005D816E817F81898D9A8D94010E947E06E7
:101440000894A108B108C108D108882331F410C05C
:1014500054E0852E912C8C0E9D1EA114B104C10464
:10146000D10429F7E886F9860A871B8781E001C045
:1014700080E0DF91CF911F910F91FF90EF90DF906F
:10148000CF90BF90AF909F908F907F906F90089576
:10149000223009F078CFE6CF2F923F924F925F92A1
:1014A0006F927F928F929F92AF92BF92CF92DF9274
:1014B000EF92FF920F931F93CF93DF93EC012A01DA
:1014C0008B81882309F4C6C08A8180FFC3C0D8C03D
:1014D00025014E185F084B01E4E02E2E312C2C0E16
:1014E0003D1E3201B1C0288539854A855B857FEF75
:1014F000A72E71E0B72EA222B3228B8179018A0137
:1015000069E016950795F794E7946A95D1F7E98D08
:10151000FA8D823049F4428D538D648D758D4E0D58
:101520005F1D601F711F3FC0D480DA94DE20A114BC
:10153000B104D9F4DD20C9F4211531054105510567
:1015400049F48D899E89AF89B88D8C839D83AE8344
:10155000BF830BC04C815D816E817F81CF01910182
:101560000E947E06882309F475C0E98DFA8D4C81AE
:101570005D816E817F8142505040604070400584A3
:1015800004C0440F551F661F771F0A94D2F7868543
:101590009785A089B189480F591F6A1F7B1F4D0D80
:1015A000511D611D711D80E092E08A199B09630144
:1015B0008615970508F46C018A8186FD06C080E0D7
:1015C000C81682E0D80609F073C080912B01909173
:1015D0002C01A0912D01B0912E01481759076A07DF
:1015E0007B0709F465C080914603909147039501FC
:1015F000840176010E94E201882361F18C0C9D1C1C
:1016000012C095012A5B3E4FA9014C0D5D1DD4010E
:10161000F90102C081918D93E417F507D9F7E21B18
:10162000F30B8E0E9F1E960140E050E08885998551
:10163000AA85BB85820F931FA41FB51F8887998732
:10164000AA87BB876C187D086114710409F04BCF21
:10165000A20102C04FEF5FEFCA01DF91CF911F914E
:101660000F91FF90EF90DF90CF90BF90AF909F9041
:101670008F907F906F905F904F903F902F90089544
:10168000A988BA88CB88DC88E884F9840A851B8518
:101690009A0140E050E0D601C5018E199F09A00BC8
:1016A000B10B82179307A407B50708F411CF13CF26
:1016B000CB01BA0140E00E945504882309F0A1CF74
:1016C000C9CFCF92DF92EF92FF920F931F93DF93D8
:1016D000CF930F92CDB7DEB76C01FC0183818230CE
:1016E00070F0E084F18402851385C601BE016F5F4E
:1016F0007F4F41E050E00E944C0A019769F020E0E2
:1017000030E0C9010F90CF91DF911F910F91FF90B1
:10171000EF90DF90CF900895F60180859185A285A6
:10172000B3854F96A11DB11D80879187A287B3878E
:10173000A5E016950795F794E794AA95D1F78E2D15
:101740008F70282F30E0F5E0220F331FFA95E1F774
:101750002A5B3E4FD6CFCF93DF93EC01462F6C85AB
:101760007D858E859F850E945504882319F420E08D
:1017700030E00AC08889282F30E0B5E0220F331FFF
:10178000BA95E1F72A5B3E4FC901DF91CF910895E9
:101790000F931F93CF93DF938C01FC0183818823E8
:1017A000C9F1828187FF33C0C80161E00E94AB0BA1
:1017B000EC01009779F1F8018381823040F481894E
:1017C0009289A389B4898C8F9D8FAE8FBF8FF801CA
:1017D00085899689A789B08D9B8F8A8FCD01AA278D
:1017E000BB279D8B8C8BE0914401F0914501309794
:1017F00051F0BE016A5E7F4FCE0148960995888DF3
:10180000998D9B8B8A8BF80182818F7782830E94CE
:10181000F60301C080E0DF91CF911F910F910895F1
:101820006F927F928F929F92AF92BF92CF92DF92F0
:10183000EF92FF920F931F93DF93CF9300D000D0CE
:10184000CDB7DEB77C015A016B01DC0113968C9198
:101850001397813009F08FC012968C9181FF8BC055
:101860009EC00097A105B10511F481E085C0F70184
:101870006084718482849384C701B601A5010E94AB
:10188000A309882309F477C0D70159968D919C91BB
:101890005A97A114B104C104D10489F455964D910D
:1018A0005D916D917C9158970E94F106882309F40F
:1018B00062C0F701158A168A178A108E3DC0D701BB
:1018C00014964D915D916D917C9117979E012F5FBC
:1018D0003F4F0E947E06882309F44DC0D7015996D8
:1018E000ED91FC915A9749815A816B817C8187895E
:1018F000803129F088EF9FEFAFEFBFE004C088EFA1
:101900009FEFA0E0B0E0481759076A077B07A0F4F3
:10191000CF010E94F106882371F1F70144815581BE
:1019200066817781818D928D0FEF1FEF2FEF3FE062
:101930000E94E2058823F9F0D7015196AD92BD923D
:10194000CD92DC92549712968C91129780681296E1
:101950008C93C7010E94C80B882369F0B601A501CA
:101960006A147B048C049D0410F4B401A301C70124
:101970000E94A30901C080E00F900F900F900F907C
:10198000CF91DF911F910F91FF90EF90DF90CF905B
:10199000BF90AF909F908F907F906F900895F701C8
:1019A00081899289A389B48984179507A607B70707
:1019B00008F057CFE0CF1F93CF93DF93EC01142FA4
:1019C000E62FF0E045E0EE0FFF1F4A95E1F7EA5BF6
:1019D000FE4F8385817121F0812F827409F054C0FC
:1019E000688B80912B0190912C01A0912D01B091D9
:1019F0002E018C879D87AE87BF8784899589A0E05B
:101A0000B0E0AC0133272227828D938DA0E0B0E0B7
:101A1000282B392B4A2B5B2B2D8B3E8B4F8B588FD2
:101A2000838590E088719070009751F4848D958D36
:101A3000A68DB78D898B9A8BAB8BBC8B81E00CC04C
:101A4000409711F5BE016F5E7F4F898D9A8D0E9480
:101A50004A078823C9F084E08B83812F8F708A83A3
:101A60001C821D821E821F82188619861A861B867A
:101A700016FD02C081E009C0CE0140E050E060E008
:101A800070E00E94100C01C080E0DF91CF911F91A7
:101A90000895CF93DF93EC010E94C80B882311F0C7
:101AA0001B8281E0DF91CF9108952F923F924F9258
:101AB0005F926F927F928F929F92AF92BF92CF92DE
:101AC000DF92EF92FF920F931F93DF93CF9300D09B
:101AD00000D00F92CDB7DEB76C01162F072F642E02
:101AE0005D83DC0113968C911397813009F069C1F5
:101AF00012968C9181FF65C182C1212F302FC901BF
:101B00002C01262D3D81C9011C0149C1F6014189E5
:101B100052896389748980859185A285B3858417EC
:101B20009507A607B70749F3C6010E94A3098823B2
:101B300009F447C1E2CFD6015996ED91FC915A972D
:101B400018962D913D914D915C911B97DA01C90139
:101B500019E0B695A795979587951A95D1F7748052
:101B60007A947822AFEF8A2EA1E09A2E82229322D5
:101B7000772009F050C08114910409F04CC0D601BF
:101B800014964D915D916D917C911797411551057A
:101B90006105710581F455968D919D910D90BC91D3
:101BA000A02D0097A105B10559F1F6018483958315
:101BB000A683B78330C0CF019E012F5F3F4F0E94A5
:101BC0007E06882319F420E030E000C129813A81A3
:101BD0004B815C81D6015996ED91FC915A9787898A
:101BE000803129F088EF9FEFAFEFBFE004C088EFAE
:101BF0009FEFA0E0B0E0281739074A075B0730F0F5
:101C0000C6010E941809882331F4DBC0F601248341
:101C100035834683578380E092E088199909510102
:101C20008215930508F45C01D6015996ED91FC915B
:101C30005A971496ED90FD900D911C9117978EEF89
:101C40009FEFAFEFBFEFE80EF91E0A1F1B1F0584C1
:101C500004C0EE0CFF1C001F111F0A94D2F78685EA
:101C60009785A089B189E80EF91E0A1F1B1FE70C92
:101C7000F11C011D111D90E0A91692E0B90651F565
:101C800080912B0190912C01A0912D01B0912E01FA
:101C90008E159F05A007B10761F48FEF9FEFAFEF9F
:101CA000BFEF80932B0190932C01A0932D01B09353
:101CB0002E018091460390914703B801A70192013C
:101CC0000E947B02882309F47CC0A0E0B2E04A0EA7
:101CD0005B1E3EC08114910409F5F6012085318513
:101CE0004285538581899289A389B4892817390748
:101CF0004A075B0799F40E94F603882309F461C040
:101D0000E0922B01F0922C0100932D0110932E01F3
:101D10008091480381608093480308C0C801B701DF
:101D200041E00E945504882309F44BC094012A5BCA
:101D30003E4FA9014A0D5B1DD201F90102C08D91F0
:101D40008193E417F507D9F7E21BF30B4E0E5F1EE4
:101D5000950140E050E0F60180859185A285B3852C
:101D6000280F391F4A1F5B1FD60118962D933D93EC
:101D70004D935C931B9751968D919D910D90BC91C5
:101D8000A02D82179307A407B50738F4218B328B57
:101D9000438B548B8281806882832A183B082114EC
:101DA000310409F0C8CED60112968C9183FF05C08C
:101DB000C6010E94C80B882321F0862D9D819C01BD
:101DC00005C081E0F601838F2FEF3FEFC9010F902F
:101DD0000F900F900F900F90CF91DF911F910F9167
:101DE000FF90EF90DF90CF90BF90AF909F908F903B
:101DF0007F906F905F904F903F902F90089582FD5D
:101E000085CE7BCEDF93CF930F92CDB7DEB76983BC
:101E1000BE016F5F7F4F41E050E00E94550D0F9073
:101E2000CF91DF910895DB010D900020E9F7119724
:101E3000A61BB70BAD010E94550D08956F927F92BE
:101E40008F929F92AF92BF92CF92DF92EF92FF92CA
:101E50000F931F93DF93CF93CDB7DEB72B970FB6BA
:101E6000F894DEBF0FBECDBF5C016B01822EDC019A
:101E700013968C91882309F0D0C0CA018E010F5FA0
:101E80001F4FB8010E94AC03882309F4C6C0F601B5
:101E9000818D928DD5015A969C938E935997148279
:101EA000158216821782D60118961D921D921D92D8
:101EB0001C921B979924380141C0C6010E94610BF6
:101EC000FC01009709F4A9C065E016950795F79401
:101ED000E7946A95D1F71E2D1F708081882311F039
:101EE000853ED1F4992091F4D50150961C935097DA
:101EF00020912B0130912C0140912D0150912E0108
:101F00001C962D933D934D935C931F97808188235E
:101F100099F49924939421C0C301BF014BE050E090
:101F20000E94CC00892B51F4882D8073803309F4F2
:101F300074C0C501612F6DC099249394F601E084AB
:101F4000F1840285138581899289A389B489E81671
:101F5000F9060A071B0708F4B0CF882D8271823179
:101F600009F05BC0992041F0C50161E00E94AB0B14
:101F70008C01009789F451C0D60113968C91823060
:101F800009F44BC0C6010E943F09882309F445C0EB
:101F9000F501108A06E411E080E2D8011D928A95CD
:101FA000E9F7D801FE0131968BE001900D92815046
:101FB000E1F7E0914401F0914501309739F0B80123
:101FC000625F7F4FC8014096099507C081E298E2A1
:101FD000F801918B808B17861686D80150968D91CB
:101FE0009C91519753969C938E93529759969C939C
:101FF0008E9358971E968D919C911F9757969C9300
:102000008E9356970E94F603882339F0C501F50197
:102010006089482D0E94DB0C01C080E02B960FB632
:10202000F894DEBF0FBECDBFCF91DF911F910F910E
:10203000FF90EF90DF90CF90BF90AF909F908F90E8
:102040007F906F9008951092510310925303109255
:1020500056031092570382E090E0A0E0B0E0809336
:10206000580390935903A0935A03B0935B031092C3
:102070006F0383E391E0909377038093760310924C
:10208000790390939303809392031092950308959C
:10209000CF93DF93EC0105C08BE394E00E946614BC
:1020A0002196FE0164916623B9F7DF91CF910895DF
:1020B0000E9448108BE394E00E947E1408950F93D1
:1020C0001F938C018EED90E00E944810C8010E9481
:1020D0005810809151038823F9F083ED90E00E941D
:1020E00048104091510350E060E070E08BE394E0D1
:1020F00020E130E00E946E158BE394E06CE20E94D8
:102100006E144091520350E060E070E08BE394E085
:1021100020E130E00E948315FFCF7F928F929F9243
:10212000AF92BF92CF92DF92EF92FF920F931F93E5
:10213000DF93CF93CDB7DEB72B970FB6F894DEBF02
:102140000FBECDBF8BE394E040E855E260E070E065
:102150000E94D5128BE394E00E947E1487EB90E0FE
:102160000E9458108BE394E00E94CE138823D1F391
:102170008AE061E00E942B128DE493E060E00E940F
:10218000D602882321F48DEA90E00E945F1088E552
:1021900093E06DE473E041E00E949D04882369F4BC
:1021A00088E593E06DE473E040E00E949D0488239D
:1021B00021F481EA90E00E945F1086E793E068E5F1
:1021C00073E00E94B807882321F488E990E00E9418
:1021D0005F10DE011196E0E2F1E08BE001900D92DC
:1021E0008150E1F789E890E00E9448108BE394E089
:1021F0008E010F5F1F4FB8010E9495141092AD031E
:10220000AA24BB246501702E812E9A2C82E993E0CA
:1022100066E773E0472D582D26E10E941E0F8823A4
:1022200021F484E890E00E945F10EE24FF248701EF
:1022300082E993E060E071E00E94761482E993E025
:10224000B801A7012AE030E00E946E1582E993E010
:1022500066E071E00E94761482E993E0B601A50180
:102260002AE030E00E946E1582E993E060E171E0BF
:102270000E9476140E94E311AB01BC0182E993E055
:102280000E943C150894E11CF11C011D111D84E6FF
:10229000E816F1040105110559F682E993E00E9460
:1022A000490D882321F08091AD03882321F088E730
:1022B00090E00E945F10992051F0892D69E10E9401
:1022C000AD15992321F48BE394E00E947E148BE3F7
:1022D00094E06EE20E946E140894A11CB11CC11C13
:1022E000D11C84E6A816B104C104D10409F08DCF35
:1022F0008BE394E00E947E148BE394E06BE171E049
:102300000E9495142B960FB6F894DEBF0FBECDBF7A
:10231000CF91DF911F910F91FF90EF90DF90CF90C1
:10232000BF90AF909F908F907F9008950E94F11181
:102330000E948D10FFCF1F920F920FB60F921124A3
:102340002F933F938F939F93AF93BF938091B2034B
:102350009091B303A091B403B091B5033091B6034B
:102360000196A11DB11D232F2D5F2D3720F02D5774
:102370000196A11DB11D2093B6038093B2039093E3
:10238000B303A093B403B093B5038091AE039091CF
:10239000AF03A091B003B091B1030196A11DB11D8F
:1023A0008093AE039093AF03A093B003B093B103B7
:1023B000BF91AF919F918F913F912F910F900FBE41
:1023C0000F901F9018958FB7F8942091B203309119
:1023D000B3034091B4035091B5038FBFB901CA0153
:1023E0000895789484B5826084BD84B5816084BD8D
:1023F00085B5826085BD85B5816085BDEEE6F0E07E
:10240000808181608083E1E8F0E080818260808368
:10241000808181608083E0E8F0E08081816080835A
:10242000E1EBF0E0808184608083E0EBF0E080818C
:1024300081608083EAE7F0E080818460808380812E
:1024400082608083808181608083808180688083D6
:102450001092C1000895282F30E0C901885E9E4F78
:10246000FC0194912C5F3E4FF9018491882391F0F7
:10247000E82FF0E0EE0FFF1FEA51FF4FA591B49156
:10248000662329F48C91909589238C9308958C91DF
:10249000892B8C930895482F50E0CA01845D9E4F8C
:1024A000FC012491CA01885E9E4FFC0194914C5F0F
:1024B0005E4FFA0134913323D1F1222331F12330DD
:1024C00021F4809180008F7705C0243031F4809111
:1024D00080008F7D8093800018C0213019F484B56E
:1024E0008F7704C0223021F484B58F7D84BD0DC068
:1024F000263021F48091B0008F7705C0273029F471
:102500008091B0008F7D8093B000E32FF0E0EE0F5C
:10251000FF1FE051FF4FA591B491662329F48C91E0
:10252000909589238C9308958C91892B8C93089591
:102530001F920F920FB60F9211242F933F934F9338
:102540005F936F937F938F939F93AF93BF93EF931B
:10255000FF934091C600E0913704F0913804CF0119
:10256000019660E870E00E94B9159C0180913904E1
:1025700090913A042817390739F0E954FC4F408309
:102580003093380420933704FF91EF91BF91AF91BE
:102590009F918F917F916F915F914F913F912F917B
:1025A0000F900FBE0F901F9018955F926F927F92C1
:1025B0008F929F92AF92BF92CF92DF92EF92FF9253
:1025C0000F931F93CF93DF93EC013A014B014134FA
:1025D00082E458078FE0680780E078070CF07FC03E
:1025E00060E874E88EE190E0A40193010E94EE158A
:1025F0002150304040405040CA01B90122E030E053
:1026000040E050E00E94EE1559016A01A6019501D3
:10261000209530954095509594E0220F331F441F2C
:10262000551F9A95D1F760E074E284EF90E00E9424
:10263000EE15CA01B9012FEF30E040E050E00E94F2
:102640008E15A40193010E94EE15C90181509F4F80
:10265000181619061CF4522E5A9403C0552453948C
:10266000521A60E079E08DE390E0A40193010E94AA
:10267000EE152150304040405040CA01B90122E0DF
:1026800030E040E050E00E94EE15209530954095F6
:10269000509583E0220F331F441F551F8A95D1F7B1
:1026A00060E074E284EF90E00E94EE15CA01B90187
:1026B0002FEF30E040E050E00E948E15A40193011E
:1026C0000E94EE15C90181509F4F181619061CF47F
:1026D000822F815002C081E0821B851500F5E885BC
:1026E000F98581E090E00A8802C0880F991F0A945A
:1026F000E2F7808360E079E08DE390E0A40193014C
:102700000E94EE152150304040405040CA01B901AE
:1027100022E030E040E050E00E94EE1504C0E88581
:10272000F98510829501EC81FD813083EE81FF8176
:102730002083EA85FB85208141E050E0CA010E84B8
:1027400002C0880F991F0A94E2F7282B2083EA859C
:10275000FB852081CA010F8402C0880F991F0A944B
:10276000E2F7282B2083EA85FB858081088802C058
:10277000440F551F0A94E2F7842B8083DF91CF9199
:102780001F910F91FF90EF90DF90CF90BF90AF908F
:102790009F908F907F906F905F900895DC011296CC
:1027A000ED91FC911397E058FF4F819191918058E2
:1027B0009F4F20813181821B930B60E870E00E9463
:1027C000B9150895FC01A085B18521898C9190E00F
:1027D000022E02C0959587950A94E2F780FFF6CF06
:1027E0000484F585E02D608308958DE391E0909356
:1027F0003C0480933B0487EB93E090933E048093EA
:102800003D0485EC90E09093400480933F0484EC79
:1028100090E0909342048093410480EC90E0909388
:1028200044048093430481EC90E0909346048093A9
:10283000450486EC90E0909348048093470484E03C
:102840008093490483E080934A0487E080934B049B
:1028500085E080934C0481E080934D0408950F93AC
:102860001F93CF93DF938C01EB0109C02196D80110
:10287000ED91FC910190F081E02DC80109956881EE
:102880006623A1F7DF91CF911F910F910895EF92E9
:10289000FF920F931F93CF93DF938C017B01EA018B
:1028A0000CC0D7016D917D01D801ED91FC91019093
:1028B000F081E02DC80109952197209791F7DF91CC
:1028C000CF911F910F91FF90EF900895DC01ED9152
:1028D000FC910190F081E02D09950895DC01ED91C6
:1028E000FC910190F081E02D09950895DC01ED91B6
:1028F000FC910280F381E02D099508950F931F93B9
:102900008C01DC01ED91FC910190F081E02D6DE0F6
:102910000995D801ED91FC910190F081E02DC8015D
:102920006AE009951F910F9108950F931F938C01F1
:102930000E947614C8010E947E141F910F91089581
:102940002F923F924F925F926F927F928F929F92BF
:10295000AF92BF92CF92DF92EF92FF920F931F93AD
:10296000DF93CF93CDB7DEB7A0970FB6F894DEBF55
:102970000FBECDBF1C016A017B01411551056105E8
:10298000710549F4DC01ED91FC910190F081E02D9D
:1029900060E3099554C0882499245401422E55249B
:1029A0006624772401E010E00C0F1D1F080D191D8F
:1029B000C701B601A30192010E94CC15F801608302
:1029C0000894811C911CA11CB11CC701B601A30174
:1029D00092010E94CC15C901DA016C017D01C1147C
:1029E000D104E104F104F1F681E0E82EF12CEC0EC3
:1029F000FD1EE80CF91C3E010894611C711CD501F8
:102A0000C4010197A109B1096C01C818D90814C003
:102A1000F601EE0DFF1D60816A3010F4605D01C0AB
:102A2000695CD101ED91FC910190F081E02DC10133
:102A300009950894E108F1086E147F0449F7A096FF
:102A40000FB6F894DEBF0FBECDBFCF91DF911F91BF
:102A50000F91FF90EF90DF90CF90BF90AF909F903D
:102A60008F907F906F905F904F903F902F90089540
:102A70002AE00E94A01408950F931F938C010E94D6
:102A80003815C8010E947E141F910F910895EF928E
:102A9000FF920F931F93CF93DF93EC017A018B0189
:102AA00077FF0FC0E881F9810190F081E02D6DE2A0
:102AB000099510950095F094E094E11CF11C011D1E
:102AC000111DCE01B801A7012AE00E94A014DF91D8
:102AD000CF911F910F91FF90EF900895DC01211588
:102AE000310541F4ED91FC910190F081E02D642FCE
:102AF000099508952A30310519F40E944715089563
:102B00000E94A01408950F931F938C010E946E15CC
:102B1000C8010E947E141F910F910895629FD001F9
:102B2000739FF001829FE00DF11D649FE00DF11D88
:102B3000929FF00D839FF00D749FF00D659FF00D37
:102B40009927729FB00DE11DF91F639FB00DE11D24
:102B5000F91FBD01CF0111240895991B79E004C02C
:102B6000991F961708F0961B881F7A95C9F78095CC
:102B7000089597FB092E07260AD077FD04D049D087
:102B800006D000201AF4709561957F4F0895F6F7EE
:102B9000909581959F4F0895A1E21A2EAA1BBB1B09
:102BA000FD010DC0AA1FBB1FEE1FFF1FA217B30719
:102BB000E407F50720F0A21BB30BE40BF50B661F2F
:102BC000771F881F991F1A9469F7609570958095F3
:102BD00090959B01AC01BD01CF01089597FB092E93
:102BE00005260ED057FD04D0D7DF0AD0001C38F4DC
:102BF00050954095309521953F4F4F4F5F4F089529
:102C0000F6F790958095709561957F4F8F4F9F4F08
:102C10000895AA1BBB1B51E107C0AA1FBB1FA61723
:102C2000B70710F0A61BB70B881F991F5A95A9F775
:102C300080959095BC01CD010895EE0FFF1F059082
:0A2C4000F491E02D0994F894FFCF01
:102C4A006C696E652000206F6620706173732000C6
:102C5A00206D696C6C6973203D2000446F6E6500BD
:102C6A00415050454E442E54585400FFFFFFFF0078
:102C7A00000000020F130F471400000000E2132F98
:042C8A0014471400D7
:00000001FF
